:020000040800F2
:10000000004001202D680008F9660008FB66000822
:10001000FD660008FF660008016700080000000098
:10002000000000000000000000000000C13C0008CB
:100030000367000800000000513D0008953D0008DE
:10004000756800087568000875680008756800081C
:10005000756800087568000875680008756800080C
:1000600075680008756800087568000875680008FC
:1000700075680008756800087568000875680008EC
:1000800075680008756800087568000875680008DC
:1000900075680008756800087568000875680008CC
:1000A00075680008756800087568000875680008BC
:1000B0007568000875680008756800086918000808
:1000C00075180008756800087568000875680008EC
:1000D00075680008756800081D1600087568000836
:1000E00075680008756800087568000805670008ED
:1000F0007568000800000000756800087568000851
:10010000756800087568000875680008756800085B
:100110007568000875680008756800080000000030
:1001200075680008000000000000000000000000EA
:0C01300000000000000000005FF808F173
:1001400010B5054C237833B9044B13B10448AFF311
:1001500000800123237010BDA400002000000000D7
:10016000A878000808B5034B1BB103490348AFF357
:10017000008008BD00000000A8000020A87800084A
:1001800010F8012B11F8013B012A28BF9A42F7D041
:10019000D01A704781F0004102E000BF83F00043B5
:1001A00030B54FEA41044FEA430594EA050F08BF12
:1001B00090EA020F1FBF54EA000C55EA020C7FEAD6
:1001C000645C7FEA655C00F0E2804FEA5454D4EB53
:1001D0005555B8BF6D420CDD2C4480EA020281EA1D
:1001E000030382EA000083EA010180EA020281EA55
:1001F0000303362D88BF30BD11F0004F4FEA0131A7
:100200004FF4801C4CEA113102D0404261EB4101B5
:1002100013F0004F4FEA03334CEA133302D052423B
:1002200063EB430394EA050F00F0A780A4F10104F7
:10023000D5F1200E0DDB02FA0EFC22FA05F2801831
:1002400041F1000103FA0EF2801843FA05F3594117
:100250000EE0A5F120050EF1200E012A03FA0EFC96
:1002600028BF4CF0020C43FA05F3C01851EBE371C0
:1002700001F0004507D54FF0000EDCF1000C7EEBDD
:1002800000006EEB0101B1F5801F1BD3B1F5001F1B
:100290000CD349085FEA30004FEA3C0C04F101043A
:1002A0004FEA445212F5800F80F09A80BCF1004F63
:1002B00008BF5FEA500C50F1000041EB045141EAE5
:1002C000050130BD5FEA4C0C404141EB010111F4E6
:1002D000801FA4F10104E9D191F0000F04BF014691
:1002E0000020B1FA81F308BF2033A3F10B03B3F16F
:1002F00020020CDA0C3208DD02F1140CC2F10C02FF
:1003000001FA0CF021FA02F10CE002F11402D8BF5C
:10031000C2F1200C01FA02F120FA0CFCDCBF41EA28
:100320000C019040E41AA2BF01EB0451294330BDF7
:100330006FEA04041F3C1CDA0C340EDC04F11404D4
:10034000C4F1200220FA04F001FA02F340EA0300AB
:1003500021FA04F345EA030130BDC4F10C04C4F1F1
:10036000200220FA02F001FA04F340EA03002946D1
:1003700030BD21FA04F0294630BD94F0000F83F41B
:10038000801306BF81F480110134013D4EE77FEAFE
:10039000645C18BF7FEA655C29D094EA050F08BF4A
:1003A00090EA020F05D054EA000C04BF194610462B
:1003B00030BD91EA030F1EBF0021002030BD5FEA6F
:1003C000545C05D14000494128BF41F0004130BD97
:1003D00014F580043CBF01F5801130BD01F00045EB
:1003E00045F0FE4141F470014FF0000030BD7FEA5E
:1003F000645C1ABF194610467FEA655C1CBF0B4659
:10040000024650EA013406BF52EA033591EA030F6F
:1004100041F4002130BD00BF90F0000F04BF002167
:10042000704730B54FF4806404F132044FF000059A
:100430004FF0000150E700BF90F0000F04BF002113
:10044000704730B54FF4806404F1320410F0004579
:1004500048BF40424FF000013EE700BF42004FEA74
:10046000E2014FEA31014FEA02701FBF12F07F43F1
:1004700093F07F4F81F06051704792F0000F14BFEE
:1004800093F07F4F704730B54FF4607401F0004532
:1004900021F0004120E700BF50EA010208BF704789
:1004A00030B54FF000050AE050EA010208BF70477E
:1004B00030B511F0004502D5404261EB41014FF4E7
:1004C000806404F132045FEA915C3FF4DCAE4FF0EB
:1004D00003025FEADC0C18BF03325FEADC0C18BFD2
:1004E000033202EBDC02C2F1200300FA03FC20FA23
:1004F00002F001FA03FE40EA0E0021FA02F1144470
:10050000C1E600BF70B54FF0FF0C4CF4E06C1CEA84
:1005100011541DBF1CEA135594EA0C0F95EA0C0FF9
:1005200000F0DEF82C4481EA030621EA4C5123EA6C
:100530004C5350EA013518BF52EA033541F480119B
:1005400043F4801338D0A0FB02CE4FF00005E1FB4E
:1005500002E506F00042E0FB03E54FF00006E1FB98
:1005600003569CF0000F18BF4EF0010EA4F1FF04DB
:10057000B6F5007F64F5407404D25FEA4E0E6D411B
:1005800046EB060642EAC62141EA55514FEAC5202C
:1005900040EA5E504FEACE2EB4F1FD0C88BFBCF5A8
:1005A000E06F1ED8BEF1004F08BF5FEA500E50F159
:1005B000000041EB045170BD06F0004646EA01011F
:1005C00040EA020081EA0301B4EB5C04C2BFD4EB51
:1005D0000C0541EA045170BD41F480114FF0000E4A
:1005E000013C00F3AB8014F1360FDEBF002001F0B8
:1005F000004170BDC4F10004203C35DA0C341BDC32
:1006000004F11404C4F1200500FA05F320FA04F003
:1006100001FA05F240EA020001F0004221F0004137
:1006200010EBD37021FA04F642EB06015EEA430EAA
:1006300008BF20EAD37070BDC4F10C04C4F12005DA
:1006400000FA04F320FA05F001FA04F240EA02008D
:1006500001F0004110EBD37041F100015EEA430E5E
:1006600008BF20EAD37070BDC4F1200500FA05F27E
:100670004EEA020E20FA04F301FA05F243EA0203FD
:1006800021FA04F001F0004121FA04F220EA02000C
:1006900000EBD3705EEA430E08BF20EAD37070BD52
:1006A00094F0000F0FD101F00046400041EB010132
:1006B00011F4801F08BF013CF7D041EA060195F014
:1006C000000F18BF704703F00046520043EB0303CE
:1006D00013F4801F08BF013DF7D043EA06037047BB
:1006E00094EA0C0F0CEA135518BF95EA0C0F0CD0C6
:1006F00050EA410618BF52EA4306D1D181EA03010C
:1007000001F000414FF0000070BD50EA410606BF05
:100710001046194652EA430619D094EA0C0F02D14A
:1007200050EA013613D195EA0C0F05D152EA03368F
:100730001CBF104619460AD181EA030101F00041AD
:1007400041F0FE4141F470014FF0000070BD41F0F6
:10075000FE4141F4780170BD70B54FF0FF0C4CF4D0
:10076000E06C1CEA11541DBF1CEA135594EA0C0FEF
:1007700095EA0C0F00F0A7F8A4EB050481EA030E3C
:1007800052EA03354FEA013100F088804FEA033323
:100790004FF0805545EA131343EA12634FEA0222F1
:1007A00045EA111545EA10654FEA00260EF00041B2
:1007B0009D4208BF964244F1FD0404F5407402D204
:1007C0005B084FEA3202B61A65EB03055B084FEA95
:1007D00032024FF480104FF4002CB6EB020E75EB92
:1007E000030E22BFB61A754640EA0C005B084FEABA
:1007F0003202B6EB020E75EB030E22BFB61A754637
:1008000040EA5C005B084FEA3202B6EB020E75EB81
:10081000030E22BFB61A754640EA9C005B084FEAF9
:100820003202B6EB020E75EB030E22BFB61A754606
:1008300040EADC0055EA060E18D04FEA051545EAF5
:1008400016754FEA06164FEAC30343EA52734FEA9E
:10085000C2025FEA1C1CC0D111F4801F0BD141EA17
:1008600000014FF000004FF0004CB6E711F4801F7C
:1008700004BF01430020B4F1FD0C88BFBCF5E06F5C
:100880003FF6AFAEB5EB030C04BFB6EB020C5FEA6C
:10089000500C50F1000041EB045170BD0EF0004EC1
:1008A0004EEA113114EB5C04C2BFD4EB0C0541EAF3
:1008B000045170BD41F480114FF0000E013C90E6F0
:1008C00045EA060E8DE60CEA135594EA0C0F08BFB4
:1008D00095EA0C0F3FF43BAF94EA0C0F0AD150EAB3
:1008E00001347FF434AF95EA0C0F7FF425AF104646
:1008F00019462CE795EA0C0F06D152EA03353FF46E
:10090000FDAE1046194622E750EA410618BF52EAEA
:1009100043067FF4C5AE50EA41047FF40DAF52EABE
:1009200043057FF4EBAE12E74FF0FF3C06E000BF5B
:100930004FF0010C02E000BF4FF0010C4DF804CD68
:100940004FEA410C7FEA6C5C4FEA430C18BF7FEA28
:100950006C5C1BD001B050EA410C0CBF52EA430C56
:1009600091EA030F02BF90EA020F0020704710F1D6
:10097000000F91EA030F58BF994208BF90422CBF65
:10098000D8176FEAE37040F0010070474FEA410C5E
:100990007FEA6C5C02D150EA013C07D14FEA430C7C
:1009A0007FEA6C5CD6D152EA033CD3D05DF8040BED
:1009B000704700BF8446104662468C46194663461F
:1009C00000E000BF01B5FFF7B7FF002848BF10F1F6
:1009D000000F01BD4DF808EDFFF7F4FF0CBF01203B
:1009E00000205DF808FB00BF4DF808EDFFF7EAFFB7
:1009F00034BF012000205DF808FB00BF4DF808ED72
:100A0000FFF7E0FF94BF012000205DF808FB00BF66
:100A10004DF808EDFFF7CEFF94BF012000205DF8F0
:100A200008FB00BF4DF808EDFFF7C4FF34BF0120FD
:100A300000205DF808FB00BF4FEA410C7FEA6C5CC8
:100A400002D150EA013C0AD14FEA430C7FEA6C5CC8
:100A500002D152EA033C02D14FF0000070474FF040
:100A6000010070474FEA4102B2F1E04324BFB3F501
:100A7000001CDCF1FE5C0DD901F0004C4FEAC00215
:100A80004CEA5070B2F1004F40EB830008BF20F0F9
:100A90000100704711F0804F21D113F13872BCBFB3
:100AA00001F00040704741F480114FEA5252C2F108
:100AB0001802C2F1200C10FA0CF320FA02F018BF51
:100AC00040F001004FEAC1234FEAD32303FA0CFCA4
:100AD00040EA0C0023FA02F34FEA4303CCE77FEA33
:100AE000625307D150EA01331EBF4FF0FE4040F47D
:100AF0004000704701F0004040F0FE4040F400002C
:100B0000704700BF80F0004002E000BF81F000416C
:100B100042001FBF5FEA410392EA030F7FEA226CA3
:100B20007FEA236C6AD04FEA1262D2EB1363C1BF33
:100B3000D218414048404140B8BF5B42192B88BFA2
:100B4000704710F0004F40F4000020F07F4018BFC5
:100B5000404211F0004F41F4000121F07F4118BFE5
:100B6000494292EA030F3FD0A2F1010241FA03FC8D
:100B700010EB0C00C3F1200301FA03F100F0004375
:100B800002D5494260EB4000B0F5000F13D3B0F13D
:100B9000807F06D340084FEA310102F10102FE2AAC
:100BA00051D2B1F1004F40EBC25008BF20F001001C
:100BB00040EA03007047490040EB000010F4000FCA
:100BC000A2F10102EDD1B0FA80FCACF1080CB2EB5D
:100BD0000C0200FA0CF0AABF00EBC25052421843BC
:100BE000BCBFD0401843704792F0000F81F4000161
:100BF00006BF80F400000132013BB5E74FEA410334
:100C00007FEA226C18BF7FEA236C21D092EA030F9F
:100C100004D092F0000F08BF0846704790EA010F19
:100C20001CBF0020704712F07F4F04D1400028BF46
:100C300040F00040704712F100723CBF00F5000028
:100C4000704700F0004343F0FE4040F4000070475E
:100C50007FEA226216BF08467FEA2363014642020A
:100C600006BF5FEA412390EA010F40F4800070471D
:100C70004FF0000304E000BF10F0004348BF4042C3
:100C80005FEA000C08BF704743F0964301464FF0FF
:100C900000001CE050EA010208BF70474FF000035B
:100CA0000AE000BF50EA010208BF704711F000439C
:100CB00002D5404261EB41015FEA010C02BF84466C
:100CC0000146002043F0B64308BFA3F18053A3F5CB
:100CD0000003BCFA8CF2083AA3EBC25310DB01FA12
:100CE00002FC634400FA02FCC2F12002BCF1004F96
:100CF00020FA02F243EB020008BF20F00100704727
:100D000002F1200201FA02FCC2F1200250EA4C007A
:100D100021FA02F243EB020008BF20EADC707047C0
:100D20004FF0FF0C1CEAD0521EBF1CEAD15392EACE
:100D30000C0F93EA0C0F6FD01A4480EA010C4002AA
:100D400018BF5FEA41211ED04FF0006343EA501004
:100D500043EA5111A0FB01310CF00040B1F5000F46
:100D60003EBF490041EAD3715B0040EA010062F1F5
:100D70007F02FD2A1DD8B3F1004F40EBC25008BFDF
:100D800020F00100704790F0000F0CF0004C08BFFD
:100D900049024CEA502040EA51207F3AC2BFD2F1CA
:100DA000FF0340EAC250704740F400004FF00003D8
:100DB000013A5DDC12F1190FDCBF00F00040704712
:100DC000C2F10002410021FA02F1C2F1200200FA50
:100DD00002FC5FEA310040F1000053EA4C0308BF17
:100DE00020EADC70704792F0000F00F0004C02BF68
:100DF000400010F4000F013AF9D040EA0C0093F0E3
:100E0000000F01F0004C02BF490011F4000F013B3C
:100E1000F9D041EA0C018FE70CEAD15392EA0C0FAA
:100E200018BF93EA0C0F0AD030F0004C18BF31F015
:100E3000004CD8D180EA010000F00040704790F0EB
:100E4000000F17BF90F0004F084691F0000F91F08F
:100E5000004F14D092EA0C0F01D142020FD193EA55
:100E60000C0F03D14B0218BF084608D180EA0100DD
:100E700000F0004040F0FE4040F40000704740F0B9
:100E8000FE4040F4400070474FF0FF0C1CEAD05287
:100E90001EBF1CEAD15392EA0C0F93EA0C0F69D0E3
:100EA000A2EB030280EA010C49024FEA402037D04E
:100EB0004FF0805343EA111143EA10130CF0004045
:100EC0008B4238BF5B0042F17D024FF4000C8B4235
:100ED00024BF5B1A40EA0C00B3EB510F24BFA3EB15
:100EE000510340EA5C00B3EB910F24BFA3EB9103E5
:100EF00040EA9C00B3EBD10F24BFA3EBD10340EA3F
:100F0000DC001B0118BF5FEA1C1CE0D1FD2A3FF684
:100F100050AF8B4240EBC25008BF20F00100704739
:100F20000CF0004C4CEA50207F32C2BFD2F1FF03DC
:100F300040EAC250704740F400004FF00003013A0D
:100F400037E792F0000F00F0004C02BF400010F4B1
:100F5000000F013AF9D040EA0C0093F0000F01F0C5
:100F6000004C02BF490011F4000F013BF9D041EAE7
:100F70000C0195E70CEAD15392EA0C0F08D142021A
:100F80007FF47DAF93EA0C0F7FF470AF084676E7ED
:100F900093EA0C0F04D14B023FF44CAF08466EE7C6
:100FA00030F0004C18BF31F0004CCAD130F0004294
:100FB0007FF45CAF31F000437FF43CAF5FE700BFEC
:100FC0004FEA4002B2F1FE4F0FD34FF09E03B3EB56
:100FD00012620DD94FEA002343F0004310F0004F96
:100FE00023FA02F018BF404270474FF000007047EC
:100FF00012F1610F01D1420205D110F0004008BF8B
:101000006FF0004070474FF000007047282100F05B
:1010100084B90000054B9A893D2358434FF47A73F5
:101020005208504390FBF3F0704700BF00000020CF
:1010300013B504460DF10600FFF7E8FF014620B99D
:10104000BDF90600FFF7E6FF2060084602B010BDBC
:10105000222100F062B9242100F05FB9094B5B88BE
:10106000F52B1CBF7D22B3FBF2F341F2171208BF30
:1010700002235043DBB243434FF47A7093FBF0F00A
:10108000704700BF0000002013B504460DF10600B4
:10109000FFF7DEFF014620B9BDF90600FFF7DEFFCE
:1010A0002060084602B010BD13B504460DF10600DD
:1010B000FFF7D1FF014620B9BDF90600FFF7CEFFCB
:1010C0002060084602B010BD002313B5454C8DF8D2
:1010D0000730238A642B1ED0C82B1ED0322B02D19E
:1010E00003238DF80730A2899DF80730042A16D013
:1010F000082A19D0022A1AD1E2899DF80730B2F5E0
:10110000D07F63D01DD81A2A5AD013D80D2A33D0D5
:1011100043F0400332E00223E3E70123E1E743F039
:1011200008038DF80730E7E743F00C03F9E743F0D5
:101130000403F6E7342A46D0D02AE9D143F050031D
:101140001CE040F602518A4246D00AD840F24131B2
:101150008A423ED040F27C618A42D9D163F07F035B
:101160000CE041F604218A4239D043F212418A420E
:10117000CED163F04F0301E043F010038DF8073048
:101180009DF80710102000F0D7F8B8B913210DF121
:10119000070000F08FF888B99DF80730E27A03F075
:1011A0007F03012A8DF8073004BF63F07F038DF8B9
:1011B00007309DF80710132000F0BEF802B010BDF4
:1011C00043F02003DAE743F03003D7E743F060034E
:1011D000D4E743F07003D1E763F06F03CEE763F029
:1011E0005F03CBE700000020224B5A88F52A0CD081
:1011F00003D87D2A1BD00C2108E0B2F5FA7F14D069
:10120000B2F57A7FF7D1082100E000219B88D02B2E
:1012100026D00ED81A2B1AD0342B1BD00D2B1CD154
:1012200041F01001112000F087B80421EEE70221FF
:10123000ECE740F24132934215D040F27C62934297
:1012400014D0B3F5D07F08D141F06001EAE741F056
:101250002001E7E741F03001E4E741F04001E1E738
:1012600041F05001DEE741F07001DBE741F0800121
:10127000D8E700BF0000002038B5054600F027F889
:1012800048B90B4CA27A012A06D02378012B08D149
:10129000FFF7AAFF28B138BDFFF716FF0028F4D0EA
:1012A00038BD2846BDE838400F2100F003B800BF24
:1012B0000000002007B50122034600926B2000F0D9
:1012C0005BFA003018BF012003B05DF804FB37B5AE
:1012D000002402AD05F8014D00F0B0F94FF496700E
:1012E00000F01CFB0F212846FFF7E4FF30B99DF802
:1012F0000700693818BF012003B030BD2046FBE766
:1013000007B5034600926B20012200F035FA003049
:1013100018BF012003B05DF804FB13B50222044698
:1013200001A8FFF7EDFF9DF805209DF8043043EA82
:101330000223238002B010BD07B502228DF80400FD
:101340008DF805106B2001A900F0E4F9002003B02E
:101350005DF804FB08B500F03BF8BDE8084000F07C
:101360004BB8000038B5002880EAE075A5EBE075C1
:101370000FD010DC0224B5F57A7FA8BF4FF47A7540
:10138000012C0AD1002000F04FF8204600F040F870
:101390000BE00446EFE70124EDE7022C12D1002018
:1013A00000F036F8012000F03FF8084B1B68D86ABF
:1013B00080B245434FF47A70B5FBF0F0BDE8384099
:1013C00000F03EB8002CF0D12046DCE7303E002093
:1013D00010B5084C05F09CF8204600224FF48061BF
:1013E00000F0F2FB2046BDE8104000224FF40061FF
:1013F00000F0EABB0004024008B505F0DBF9BDE8E7
:1014000008400021014802F0F2B800BF303E002041
:10141000024620B94FF48061024800F0D5BB01229A
:10142000F8E700BF00040240024620B94FF4006113
:10143000024800F0C9BB0122F8E700BF00040240E7
:10144000034B1A68D36A9BB2984298BF50637047A7
:10145000303E00201FB5084B04460A4601A8196813
:1014600002F070FB0020019B102B19BF207002209E
:10147000029B237004B010BDC0000020484B2DE932
:10148000F0435A6A87B042F400325A625B6A002520
:1014900003F400330093009B0C2301930223029377
:1014A00001230393072301A93E483F4E059304956A
:1014B00000F0B8FA2A460521262000F04FFA26202F
:1014C00000F080FAF36823F40053F360336923F4E7
:1014D00040533361F36823F4164323F00C0343F0C5
:1014E0000C03F360736923F44073736101F080FFB0
:1014F000074601F07DFF814601F07AFF044601F0C6
:1015000077FF804601F074FF19214FF4164C01FB60
:1015100008F301FB09F901FB04F2B9FBFCF9B3FB89
:10152000FCFC01FB00F3214C4FF0640EB2FBF4F223
:10153000B3FBF4F30EFB12920EFB13C34F431201E5
:101540001B0132323233B2FBFEF2B3FBFEF3B7FBC8
:10155000F4F402F0F00203F00F03134303EB04145E
:10156000B4603369124823F490433361736923F004
:101570002A037361F36843F40053F36002F029FA1D
:101580000C4B294618600C4802F0B0FA0B4B18605F
:10159000F36843F02003F36007B0BDE8F08300BFB9
:1015A00000380240000002400044004000983A0029
:1015B00004790008C4000020FC780008C000002066
:1015C00038B505460A4C4FF0FF31206802F004FAA6
:1015D000084A681E10F8013F23B92068BDE838406A
:1015E00002F082BA11680906FCD55360F2E700BF29
:1015F000C40000200044004038B504460D46FFF703
:1016000029FF23461A7801340D2A04D000B138BDD1
:1016100029462046F3E700221A7038BD054B1A68A8
:10162000920606D55968044B0022C9B2186802F028
:1016300061BA704700440040C00000202DE9F0432B
:101640002C4C85B02378022B35D1002504A840F816
:10165000105D02F0BEF9DFF8B4900121C9F8000076
:1016600004A840F80C5D02F0DFF9DFF8A480012146
:10167000C8F8000004A840F8085D02F0D5F91E4F34
:101680000121386004A840F8045D02F0CDF91B4E3A
:101690003060D9F8000002F027FA2946D8F8000097
:1016A00002F0D6F92946386802F0D2F929463068A6
:1016B00002F0CEF92570237893B91148114A1249E6
:1016C000836080E806004FF48042C360026143619A
:1016D0008361C361036200F09FFB48B10323237061
:1016E000207810F1FF3018BF012005B0BDE8F0836D
:1016F0000123F4E720000020280100201C01002025
:10170000C8000020801A060000540040200100207C
:10171000240100202DE9F843144D40008846C6B24C
:10172000C8212868914602F057F9114FFF284FF061
:101730000001386814BF0024022402F089F94B46E6
:10174000424631460B4800F0F5FB60B9C8213868C5
:1017500002F07EF9FF2808BF0224286802F0C4F9CD
:101760002046BDE8F8830124F7E700BF20010020F0
:1017700028010020C80000202DE9F347174D400044
:101780008846C6B2C821286891469A4602F024F9D4
:10179000134FFF284FF00001386814BF00240224C3
:1017A00002F056F9BDF82830CDF800A0019342466A
:1017B0004B4631460B4800F011FC68B9C821386827
:1017C00002F046F9FF2808BF0224286802F08CF9CD
:1017D000204602B0BDE8F0870124F6E72001002092
:1017E0001C010020C800002000B502681C4B89B015
:1017F0009A4231D103F5F2335A6A03A942F4001236
:101800005A625A6A174802F400120192019ADA6980
:1018100042F00202DA61DB6903F002030293029BE9
:10182000C0230393122304930123059303230693F8
:101830000423079300F0F6F8002205211F2000F092
:101840008DF81F2000F0BEF820200022052100F0B6
:1018500085F8202000F0B6F809B05DF804FB00BF61
:101860000054004000040240014800F0E7BC00BF03
:10187000C8000020014801F03BB800BFC8000020AC
:10188000014B186802F00CB928010020014B1868C0
:1018900002F006B924010020014B186802F000B9DB
:1018A0001C01002008B50C4B1B681A6842F400426A
:1018B0001A601A6822F400421A60084B186802F095
:1018C000EFF8074B186802F0EBF8064B1868BDE814
:1018D000084002F0E5B800BFC80000201C0100204D
:1018E000240100202801002008B5032000F024F87E
:1018F000002004F0C5FE04F09BFE002008BD00009F
:10190000024A136801331360704700BF2023002090
:10191000014B1868704700BF2023002013B50190C9
:10192000FFF7F6FF0446FFF7F3FF019B001B984209
:10193000F9D302B010BD0000074A0002D36800F4DA
:10194000E06023F4E0631B041B0C43F0BF6343F42B
:1019500000330343D360704700ED00E0174B30B510
:10196000DC68C4F30224C4F10703251D042B28BF3F
:101970000423062D4FF0010598BF002405FA03F358
:1019800003F1FF3388BF033C1940A14005FA04F47A
:10199000013C2240002842EA01024FEA0212AFBF96
:1019A00000F16040064B00F00F00D2B2A5BFD2B2EA
:1019B00000F561401A5480F8002330BD00ED00E0CE
:1019C00014ED00E00123420900F01F0003FA00F0CB
:1019D000014B43F82200704700E100E090F821201D
:1019E00010B5022A03D004228263012010BD0268D0
:1019F000C46B1168436B21F00E011160116821F076
:101A0000010111600121026C01FA02F262600024FE
:101A100080F8211080F8204013B19847204610BD6F
:101A2000184610BD00232DE9F74FD1F80080DFF8EC
:101A30009491624A38FA03F402D103B0BDE8F08F02
:101A40004FF0010E0EFA03FE18EA0E0600F0A88011
:101A50004C6824F01007022F16D14FF00F0C4FEAFC
:101A6000D30A00EB8A0A03F0070BDAF820504FEA9A
:101A70008B0B0CFA0BFC25EA0C0C0D6905FA0BF527
:101A800045EA0C05CAF8205003254FEA430A05FA37
:101A90000AF5ED43D0F800B004F0030C0BEA050B97
:101AA0000CFA0AFC013F4CEA0B0C012FC0F800C0F5
:101AB00011D8876807EA050BCF6807FA0AFC4CEAD9
:101AC0000B078760476827EA0E0EC4F300179F4094
:101AD00047EA0E074760C7683D408F6807FA0AF774
:101AE0003D43C560E5005BD54FF00F0CD9F82050A1
:101AF00023F0030745F00105C9F82050D9F820501C
:101B000007F1804705F00105019507F5803703F0DF
:101B1000030E019D4FEA8E0ED7F808A00CFA0EF5C1
:101B20002AEA050C264DA8423CD005F58065A8425E
:101B30003AD005F58065A84238D005F58065A84201
:101B400036D005F58065A84234D005F58065A842F9
:101B500032D005F58065A84214BF0725062505FA91
:101B60000EF545EA0C05BD60F743156814F4803F97
:101B70000CBF3D4035431560556814F4003F0CBF61
:101B80003D4035435560956814F4801F0CBF3D40BF
:101B900035439560D568A40254BF3D403543D560B8
:101BA000013347E70025DAE70125D8E70225D6E724
:101BB0000325D4E70425D2E70525D0E7000401403A
:101BC00000000240003802400AB1816170470904F8
:101BD000FBE70268536913F480630DD06FF48063F0
:101BE00053610423202203640023036380F83C3004
:101BF00080F83D2001207047184670472DE9F843D2
:101C0000044617469946C1F307488EB22568B8F1D5
:101C1000010F0CBF6B69AB6936EA030314BF0120E7
:101C2000002008B9BDE8F8836B695A0512D52B6806
:101C3000202243F400732B606FF480636B610423F4
:101C4000236400230120236384F83C3084F83D2082
:101C5000BDE8F8837B1CD9D04FB900232022236331
:101C600084F83C3084F83D200320BDE8F883FFF77A
:101C70004FFEA0EB09008742C8D2EEE72DE9F843FA
:101C8000044690461F46089EC1F307498DB223685B
:101C9000B9F1010F0CBF5B699B6935EA03030CBF07
:101CA00001230023434502D00020BDE8F8837B1CBC
:101CB000EDD05FB900232022236384F83C3084F800
:101CC0003D20032084F83E30BDE8F883FFF720FE76
:101CD000801B8742DBD2EDE770B504460D46164601
:101CE00023685B691B0601D5002070BD2046FFF705
:101CF00070FFA8B96A1CF3D065B9236C202243F0A9
:101D00002003236400230320236384F83C3084F8F9
:101D10003D2070BDFFF7FCFD801B8542E0D2ECE763
:101D2000012070BD2DE9FF419846036816461A68E8
:101D30000B9D42F480621A601A680F4642F480726A
:101D40001A604FF0011100950A9B00220446FFF72C
:101D500095FF80B92368FFB207F0FE021A612D4992
:101D60002B460A9A2046FFF749FF40B1236C042B0B
:101D700001D1012000E0032004B0BDE8F081236818
:101D800003905A690A9903929B692A460393204655
:101D9000039BFFF7A1FF40B1236C042BEBD122681A
:101DA000136843F400731360E3E7B8F1010F23688D
:101DB00024D1F6B21E612A460A992046FFF78CFF0D
:101DC00002460028E8D1216820460B6843F480735E
:101DD0000B6000950A9B4FF00111FFF74FFF0028A1
:101DE000C9D1236847F001071F610A9A2B460949A8
:101DF0002046FFF703FF0028B8D1BDE7320A1A6179
:101E00000A992A462046FFF767FF0028C4D12368B5
:101E1000CFE700BF0200010070B5044608B90120F9
:101E200070BD90F83D3003F0FF021BB980F83C20F4
:101E3000FFF7DAFC01F0DCFA3B4B9842EFD92423A0
:101E40003A4D84F83D30B0FBF5F5236838491A68FF
:101E500022F001021A605A6822F03F022A435A60B7
:101E600062681E6A8A4281BF4FF4967169434FF4DB
:101E70007A75B1FBF5F194BF691C013126F03F067C
:101E800031431962DD692A4925F44F458A4225F01C
:101E9000FF0530D85200B0FBF2F0C0F30B02032A6A
:101EA00098BF04202843D8611968206AE26921F0AC
:101EB000C00102430A431A609968E068226921F46C
:101EC0000341024321F0FF010A439A60D968A069E7
:101ED000626921F0FF0102430A43DA601A680020B8
:101EE00042F001021A602023206484F83D30206310
:101EF00084F83E0070BDA16849B902EB4202B0FB14
:101F0000F2F0C0F30B0262B140F40040CAE71921BD
:101F10004A43B0FBF2F0C0F30B0212B140F4404070
:101F2000C0E70120BEE700BF7F841E0040420F00D3
:101F3000A086010037B50024019490F83D40202C84
:101F400002D0022003B030BD46F2A815214C24680F
:101F5000B4FBF5F519246C430194019C651E0195B1
:101F60003CB92023046380F83C4080F83D300320D6
:101F7000E8E70468A569AD07EFD490F83C50012D5F
:101F8000DFD0012580F83C502568ED075EBF25684D
:101F900045F001052560256825F4006525602125AB
:101FA00080F83D50102580F83E500025056443859B
:101FB000094B4262C362438D41640385236843F445
:101FC00080732360636880F83C5043F4E06363608F
:101FD0002846B7E7380000200000FFFF2DE9F04F4A
:101FE000044687B09B4689469246DDF84080BDF89E
:101FF0004470FFF78DFC94F83D300646202B03D04B
:10200000022007B0BDE8F08FB8F1000F3DD0002FDF
:102010003BD00090192301224FF002112046FFF718
:102020002DFE0028ECD194F83C30012BE8D00123A0
:1020300084F83C30236800251A684946D20758BF07
:102040001A6820465CBF42F001021A601A6822F446
:1020500000621A60222384F83D30402384F83E3029
:10206000284B25646785E362638DC4F8248023854B
:1020700023230196009352465B46FFF753FE40B17F
:10208000236C84F83C50042B01D10120B9E70320D4
:10209000B7E7638D9BB2012B236815D11A6822F430
:1020A00080621A6003905A6903929A690392039AB4
:1020B0001A6842F400721A60002284F83C205A68C0
:1020C00042F4E0625A609CE7628D92B2022A1A687A
:1020D0000DD122F480621A601A6842F400621A601C
:1020E00004905A6904929A690492049AE4E742F4CB
:1020F00080621A6005905A6905929A690592059A5C
:10210000DAE700BF0000FFFF704770477047704775
:102110007047704790F83D3010B5293B012B0446BD
:10212000036839D800220263282280F83D201A680B
:1021300022F400621A605A6812F4006254D05A689D
:10214000606B22F400625A6090F82130012B394B09
:1021500031D04363FFF742FC50B12268606B1368D3
:1021600023F001031360202384F83D30436B98472C
:1021700094F83D30282B0ED1236C5B070BD52E4BEA
:102180002022E36200232046236384F83D2084F864
:102190003E30FFF7BCFF10BD90F83D20602A05D00F
:1021A0005A6812055CBF202280F83D20002222637D
:1021B00084F83E20BBE7A06B4363FFF70FFC0028C9
:1021C000D6D022685369580604D5636A1269591C2F
:1021D00061621A702268A06B136823F00103136018
:1021E000202384F83D30C1E794F83D10602914D1D4
:1021F000202184F83D1022645A69510604D5626A90
:102200001B69511C6162137022682046136823F019
:1022100001031360FFF77DFFAAE75A69520604D550
:10222000626A1B69511C616213702046FFF73AFB1A
:102230009EE700BF352A00080000FFFF70B5036865
:102240008CB09D6959695A6890F83E40102C04D0B2
:1022500090F83E40402C40F03E8211F0011F6AD0C1
:10226000960568D590F83E40402C47D1046D002C6F
:102270003FD1446C04F0FE041C61924C066D0C408E
:10228000002E40F08181904E2E40002E00F07C8187
:102290008E4D0D40002D00F03581550540F1328105
:1022A000002C40F02F81028D002A40F0158190F81B
:1022B0003D20212A40F01081C26A042A00F04D819D
:1022C000C26A082A00F04981C26A12F5803F00F014
:1022D00044815A6822F4E0625A60112303630023A8
:1022E00080F83E30202380F83D30FFF7C9FA0CB06B
:1022F00070BD446C44F00104E4B2BDE70469B4F578
:10230000804F05D190F83D40212C446CF2D1B1E7CB
:10231000046D34B9446CE41104F0060444F0F00494
:10232000AAE7046D012CA8D1446CE41104F0060462
:1023300044F0F104A0E7664C0C401CB1940501D5B3
:10234000446CD9E7634C0C40002C96D0960594D58C
:1023500090F83D40222C40F0AD80046D54B990F8C7
:102360003E60402E06D101945C6901949C69019401
:10237000019C82E7046D8CB90669B6F5404F0DD11A
:1023800002945C6902949C690294029C1C6844F467
:1023900080741C60046D013404656EE7448DA4B242
:1023A00054B903945C6903949C690394039C1C686E
:1023B00044F400741C601AE0448DA4B2012C45D191
:1023C000C46A14F5803F1BD11C6824F480641C602F
:1023D0005C6814F400640CD01C6824F480641C60F5
:1023E000002404945C6904949C690494049C002473
:1023F000D2E705945C6905949C690594059CD6E731
:10240000C46A042C16D0C46A082C13D0046B122C96
:1024100010D0C46A022C1C6814BF24F4806444F4F5
:1024200080641C60002406945C6906949C69069490
:10243000069CDCE71C6824F480641C60002407947C
:102440005C6907949C690794079CB0E7448DA4B22B
:10245000022C1CD1C46A022C1C681DBF24F48064A9
:102460001C601C6844F4806418BF44F400641C6061
:102470005C68240542BF5C6844F480545C600024BE
:1024800008945C6908949C690894089CAFE71C68F0
:1024900044F480641C605C68260542BF5C6844F4B8
:1024A00080545C60002409945C6909949C690994D7
:1024B000099C9CE700240A945C690A949C690A942C
:1024C0000A9CDAE60400010004000200800001001A
:1024D000080001000200010090F83D20212A09D0E7
:1024E00090F83E20402A7FF402AF90F83D20222A47
:1024F0007FF4FDAE428D92B292B95A6822F48062A6
:102500005A60F4E6002C3FF4F2AE94057FF5EFAE8E
:1025100090F83D20212A7FF4EAAE428D92B24AB172
:10252000426A511C416212781A61438D013B9BB291
:102530004385DCE6C16A04290FD0C16A08290CD0A2
:10254000C16A11F5803F08D0596821F4E0615960F3
:102550001123036380F83E20C4E65A6822F4E06247
:102560005A601A6842F400721A6000232022036342
:1025700080F83D2090F83E2080F83E30402A7FF4DD
:10258000B4AEFFF7C5FDB2E6984D0D40002D4AD020
:10259000510548D5002C46D190F83D20222A7FF4E1
:1025A000A6AE428D92B2032A01D9426A54E0428D0E
:1025B00092B2022A03D0428D92B2032A0ED1C26A8D
:1025C000022A1A681DBF22F480621A601A6842F457
:1025D000806218BF42F400621A608EE7C26A022A63
:1025E0001A6814BF22F4806242F480621A605A684A
:1025F00022F4E0625A60426A1B69511C4162137006
:10260000438D013B9BB24385202380F83D3090F8F9
:102610003E30402B4FF0000356D1036380F83E302C
:10262000FFF73AF963E6002C3FF461AE92057FF5BF
:102630005EAE428D92B2032A426A12D1C16A042967
:1026400006D0C16A082903D0C16A11F5803F03D1C1
:10265000196821F4806119601B69511C4162137073
:1026600063E7418D89B20229F6D1C16A042927D0D6
:10267000C16A082924D0C16A11F5803F20D0C16AFF
:102680000229196814BF21F4806141F48061196046
:102690001B69511C41621370438D013B9BB2438502
:1026A000436A5A1C4262026812691A70438D0268BA
:1026B000013B9BB24385536823F440735360A3E707
:1026C000196841F40071E2E71222026380F83E309B
:1026D000FFF7DCF80BE6464C0C4074B196050CD5C0
:1026E00099699B6981F004011D06C1F3800154BF03
:1026F0008289028BFFF70AFDF9E53E4C0C40002C65
:102700007CD094057AD55A6822F4E0625A6000229F
:102710000B925A690B921A6842F001021A600B9AE6
:102720001A6822F480621A605A6811050CD590F874
:102730003D20222A03D090F83D202A2A29D1826BFD
:102740001268526892B24285428D92B2E2B15A69E1
:10275000520708D5426A1B69511C41621370438DB0
:10276000013B9BB24385026853695E0608D5436A04
:102770001269591C41621A70438D013B9BB243851B
:10278000036C43F004030364036C23B1FFF7C2FC42
:10279000ADE5426BD4E790F83D30282B07D090F898
:1027A0003D302A2B03D090F83D30292B0BD1124B12
:1027B0002022C3620023036380F83D2080F83E306E
:1027C000FFF7A5FC93E5036B222B04D090F83D3076
:1027D000222B7FF48CAD00232022036380F83D2060
:1027E00080F83E30FFF791FC81E500BF400001001A
:1027F00002000100100001000000FFFF384E394CBC
:102800002E400C40002E35D0374D0D4035B35505C8
:1028100024D51CBB428D92B2002A3FF468AD426AB7
:10282000511C416212781A61428D013A92B242857E
:10283000428D92B2002A7FF45AAD90F83D20292AA9
:102840007FF455AD5A6822F480625A6021230363F5
:10285000282380F83D30FFF757FC48E5002C3FF473
:1028600046AD94057FF543AD428D92B2002A7FF4C8
:1028700057AE3CE51D4D0D402DB3510523D514BB7E
:10288000428D92B2002A3FF432AD426A1B69511C5C
:1028900041621370438D013B9BB24385438D9BB2D4
:1028A000002B7FF424AD90F83D302A2B7FF41FAD30
:1028B0000268536823F48063536022230363282350
:1028C00080F83D308EE7002C3FF411AD92057FF586
:1028D0000EAD428D92B2002A7FF467AE07E500BFCD
:1028E000040002000400010080000100400001001B
:1028F000036870B54D4A5E69044616425D6808D0AB
:10290000E80506D5226C42F0010222646FF4807261
:102910005A6116F4813F08D0E90506D5226C42F0D1
:10292000020222646FF400725A6116F4823F39D0B9
:10293000EA0537D594F83E20202A65D1628D92B2FF
:10294000002A61D194F83D20212A0AD094F83D2034
:10295000292A06D094F83D20282A55D1226B212A15
:1029600052D1E26A042A02D0E26A082A2FD194F8EE
:102970003D20282A2BD12E4A2046E2625A6822F4B2
:10298000E0625A606FF480625A611A6822F48062D1
:102990001A6000232022236384F83D2084F83E300F
:1029A000FFF7B5FB16F4843F09D0EB0507D56FF4AC
:1029B0000062236C43F00803236423685A61236C8C
:1029C000002B31D02046BDE87040FFF7A3BB94F840
:1029D0003D20D2B2212A23D115492046E16222634B
:1029E000202284F83D20002284F83E205A6822F4F8
:1029F000E0625A606FF480625A611A6822F4806261
:102A00001A60FFF781FBCDE7226C42F004022264DA
:102A100094F83E20102A02BF1A6842F400721A602D
:102A20006FF480625A61BDE770BD00BF0001010014
:102A30000000FFFF406A08B50368416B1A6822F482
:102A400080621A60002242854A63816B4A6390F873
:102A50003D1060294FF0200180F83D1080F83E20A5
:102A600007D102641A6822F001021A60FFF751FBD5
:102A700008BD1A6822F001021A60FEF713FF08BDB4
:102A80001C4B82B09A6812F0F00F0CD000221A4949
:102A90000B6823F0010313430B60086800F001008A
:102AA000504002B070475A6A144912F0805F0FD04C
:102AB0000A6802F4C052B2F5C05FE7D1B0F5404FEA
:102AC000E4D10D4A136843F0040313600122DEE7EA
:102AD0005A6A42F080525A625A6A02F08052019257
:102AE000019A0A68596A02F4C05221F08051596271
:102AF000E1E700BF00380240003C024000700040A7
:102B000003682DE9F743D90704466AD423689A0776
:102B100000F1E6802368DE0655D5C14DAB6813F0A1
:102B20000C0F40F083814FF4007393FAA3F22968ED
:102B300093FAA3F3B3FA83F3012203F01F0302FA1B
:102B400003F30B4202D0A369002B6ED0B44D206A70
:102B50006B6803F46043984240F24A81FFF790FFAC
:102B6000002862D16B68226A23F4604313436B60D0
:102B700069684FF07F4393FAA3F3B3FA83F2E369F2
:102B8000934021F07F4213436B604FF4604393FA0C
:102B9000A3F3B3FA83F0A24BF0219A6891FAA1F162
:102BA000B1FA81F1236A02F0F002C340581C4FF4DD
:102BB0000043CA409B4983408A5C0020D3409A4A24
:102BC000136003F05DFD23681D0700F19181236808
:102BD000580700F1D381626A002A40F05782002032
:102BE00024E08F4B9A6802F00C02082A07D09A68FA
:102BF00002F00C020C2A1CD19B68DB0319D54FF4A0
:102C0000003393FAA3F2864A116893FAA3F3B3FA56
:102C100083F3012203F01F0302FA03F30B423FF494
:102C200075AF6368002B7FF471AF012003B0BDE87E
:102C3000F08363687A4D012B20D12B6843F48033F5
:102C40002B60FEF765FE4FF4003580460126744F79
:102C500095FAA5F33A6895FAA5F3B3FA83F303F06E
:102C60001F0306FA03F313427FF450AFFEF750FE42
:102C7000A0EB08006428EBD90320D7E713BB2B682F
:102C80004FF4003623F480332B602B68012723F4A4
:102C900080232B60FEF73CFE804696FAA6F32A6856
:102CA00096FAA6F3B3FA83F303F01F0307FA03F3CC
:102CB00013423FF42BAFFEF72BFEA0EB0800642875
:102CC000EBD9D9E7052B2B6803D143F480232B6084
:102CD000B3E723F480332B602B6823F48023AFE722
:102CE0004F4B9A6802F00C02042A07D09A6802F04F
:102CF0000C020C2A24D19B68DF0321D4022393FA0F
:102D0000A3F2474A106893FAA3F3B3FA83F30121BD
:102D100003F01F0301FA03F30342134602D0E268F3
:102D20008A4282D158684FF4F85292FAA2F2B2FA6B
:102D300082F122698A4020F4F8510A435A60E9E698
:102D4000E268012582B395FAA5F3B3FA83F303F1A0
:102D5000845303F58E139B001D60FEF7D9FD0227F7
:102D600080462F4E97FAA7F3326897FAA7F3B3FA83
:102D700083F303F01F0305FA03F313420DD07168C8
:102D80004FF4F85393FAA3F3B3FA83F22369934011
:102D900021F4F85213437360BCE6FEF7B9FDA0EBD3
:102DA00008000228DED967E795FAA5F3B3FA83F3A2
:102DB00003F1845303F58E139B001A60FEF7A8FD00
:102DC00002268046164F96FAA6F33A6896FAA6F3BC
:102DD000B3FA83F303F01F0305FA03F313423FF43E
:102DE00099AEFEF795FDA0EB08000228EBD943E76A
:102DF0006B6823F4604303436B6069684FF07F4363
:102E000093FAA3F3B3FA83F2E369934021F07F428C
:102E100013436B60FFF734FE00283FF4B6AE04E7BF
:102E2000003802403385000838000020A2694FF4C2
:102E30008073002A37D093FAA3F3B3FA83F3012601
:102E400003F1845303F58E139B001E60FEF760FDB3
:102E50004FF40077804697FAA7F32A6897FAA7F30A
:102E6000B3FA83F303F01F0306FA03F3134213D0FC
:102E70006B68226A23F4604313436B6069684FF008
:102E80007F4393FAA3F3B3FA83F2E369934021F00B
:102E90007F4213436B6096E6FEF73AFDA0EB080015
:102EA0000228D8D9E8E693FAA3F3B3FA83F303F13F
:102EB000845303F58E139B001A60FEF729FD4FF42F
:102EC00000768046012796FAA6F32A6896FAA6F3BA
:102ED000B3FA83F303F01F0307FA03F313423FF43B
:102EE00072AEFEF715FDA0EB08000228EBD9C3E691
:102EF00062690125A94902B395FAA5F3B3FA83F3F0
:102F00000B449B001D60FEF703FD02268046A44F84
:102F100096FAA6F37A6B96FAA6F3B3FA83F303F064
:102F20001F0305FA03F313427FF451AEFEF7F0FCE2
:102F3000A0EB08000228EBD99EE695FAA5F3B3FAB8
:102F400083F30B449B001A60FEF7E2FC02268046E6
:102F5000934F96FAA6F37A6B96FAA6F3B3FA83F335
:102F600003F01F0305FA03F313423FF430AEFEF7FC
:102F7000CFFCA0EB08000228EBD97DE6884B5A6A0B
:102F8000D10034D401265A6A42F080525A625B6AF8
:102F900003F080530193019B824D2B68DA0528D5FD
:102FA000A3687F4D012B34D16B6B43F480736B634B
:102FB000FEF7AEFC4FF4007581460127DFF8E08193
:102FC00095FAA5F3D8F8342095FAA5F3B3FA83F36C
:102FD00003F01F0307FA03F313424ED0002E3FF411
:102FE000FAAD6F4A536A23F080535362F3E500262B
:102FF000D2E72B6843F480732B60FEF789FC074609
:103000002B68DB05CCD4FEF783FCC01B6428F7D902
:1030100032E623BB6B6B4FF4007723F480736B6352
:103020006B6B4FF0010823F480636B63FEF770FC59
:10303000814697FAA7F36A6B97FAA7F3B3FA83F37B
:1030400003F01F0308FA03F31342C7D0FEF760FC36
:1030500041F28833A0EB09009842EAD90CE6052B2F
:103060006B6B03D143F480636B639DE723F4807340
:103070006B636B6B23F4806399E7FEF749FC41F2C5
:103080008833A0EB090098429AD9F5E5444DAB6826
:1030900003F00C030C2B3FF4C8AD022A4FF08073F1
:1030A00056D193FAA3F3B3FA83F3002203F18453C6
:1030B00003F58E139B001A60FEF72AFC2E4680460D
:1030C0004FF00077012597FAA7F3326897FAA7F334
:1030D000B3FA83F303F01F0305FA03F3134230D16D
:1030E000B268A36AE16A22F47D020B431343226BA8
:1030F0001343B3604FF0807393FAA3F3B3FA83F3EF
:1031000003F1845303F58E139B001D60FEF700FC52
:103110004FF0007407460125214E94FAA4F332685B
:1031200094FAA4F3B3FA83F303F01F0305FA03F34D
:1031300013427FF454ADFEF7EBFBC01B0228ECD921
:103140009AE5FEF7E5FBA0EB08000228BBD993E562
:1031500093FAA3F3B3FA83F3002203F1845303F544
:103160008E139B001A60FEF7D3FB4FF000740746E6
:10317000012694FAA4F32A6894FAA4F3B3FA83F329
:1031800003F01F0306FA03F313423FF428ADFEF7E2
:10319000BFFBC01B0228ECD96EE500BFA0C1911097
:1031A00000380240007000401E4910B58B6803F0E3
:1031B0000C02082A05D00C2A05D0042A22D11A486C
:1031C00010BD1A4810BD4FF4701292FAA2F2B2FA72
:1031D00082F203F4701020FA02F21548845C4FF476
:1031E000400090FAA0F0B0FA80F203F440008B683F
:1031F000D040DB034CBF0D4B0B4B01306343B3FBA3
:10320000F0F010BD48684FF4604393FAA3F3B3FAAB
:1032100083F300F46040D840431C4FF400409840D2
:1032200010BD00BF003802400024F40000366E01DB
:103230004B8500086A4B2DE9F0411A68064602F0FA
:1032400001028A420D4630D33268940740D4D00739
:1032500046D4634B1A6802F001029542C0F0AE807A
:103260003268510700F1B380130707D55D4A316911
:10327000936823F4605343EAC1039360FFF794FF1C
:10328000584BF0229B6892FAA2F2B2FA82F203F053
:10329000F003D340544AD35CD840544B186000200C
:1032A00003F0EEF90020BDE8F081012902BF1A68A1
:1032B00042F004021A601A6822F001020A431A60FE
:1032C0001B6803F001039942BED00120BDE8F081E4
:1032D0004449B0688B6823F0F00303438B60B6E782
:1032E00072684049022A0FD14FF4003393FAA3F0D9
:1032F000086893FAA3F3B3FA83F3012103F01F03E1
:1033000001FA03F3034213E0032A02D14FF00073E2
:10331000ECE7012A29D1022393FAA3F0096893FA72
:10332000A3F3B3FA83F303F01F0302FA03F30B4290
:10333000CBD02C4C41F28838A36823F003031A4306
:10334000A260FEF7E5FA73680746022B10D1A36866
:1033500003F00C03082B3FF47CAFFEF7D9FAC01B37
:103360004045F4D90320BDE8F0814FF40073BDE778
:10337000032B0BD1A36803F00C030C2B3FF469AFB4
:10338000FEF7C6FAC01B4045F4D9EBE7012B10D17C
:10339000A36803F00C03042B3FF45BAFFEF7B8FA0D
:1033A000C01B4045F4D9DDE7FEF7B2FAC01B40452B
:1033B000D8D8A36813F00C0FF6D14AE71A6822F0A8
:1033C00001021A601B68DA073FF57FAF48E705493D
:1033D000F0688B6823F4E06303438B6044E700BF2D
:1033E000003C0240003802403385000838000020CD
:1033F000084B4FF4E0629B6892FAA2F2B2FA82F2B2
:1034000003F4E063D340044AD35C044A1068D84014
:10341000704700BF00380240438500083800002094
:103420000F2303600B4B9A6802F0030242609A6814
:1034300002F0F00282609A6802F4E062C2609B6867
:10344000DB0803F4E0630361034B1B6803F0010333
:103450000B60704700380240003C0240B0F1804FE2
:1034600003680ED01C4A90420BD002F58062904255
:1034700007D002F58062904203D002F57C42904270
:1034800016D14A6823F07003B0F1804F43EA02037B
:1034900015D0114A904212D002F5806290420ED0AF
:1034A00002F5806290420AD002F57C42904206D03A
:1034B0000A4A904203D002F58062904203D1CA6862
:1034C00023F44073134303608B68C3620B68836209
:1034D00001234361704700BF00040040000C01401D
:1034E000036A30B523F001030362036A446882690A
:1034F0000D6822F073022A438D6823F002034460B2
:1035000082614A682B434263036230BD036A30B56F
:1035100023F010030362036A446882690D6822F491
:10352000E64242EA05228D6823F02003446082616E
:103530004A6843EA05138263036230BD10B5012473
:10354000036A8C4023EA04030362036A8A401A4335
:10355000026210BD10B50446A0B190F8353003F0FA
:10356000FF021BB980F8342003F0F6F8022320682C
:1035700084F83530211DFFF771FF0123002084F806
:10358000353010BD012010BD03680020DA6842F01C
:103590000102DA601A6842F001021A60704770474F
:1035A00010B50446A0B190F8353003F0FF021BB906
:1035B00080F83420FFF7F3FF0223206884F83530C9
:1035C000211DFFF74BFF0123002084F8353010BD8B
:1035D000012010BD10B5044601220068FFF7AEFFC0
:1035E00022680020136843F00103136010BDFFF749
:1035F000F1BF90F8343070B5012B05460C464FF002
:10360000020025D0012385F8350085F834300C2AD6
:1036100018D8DFE802F0071717171E1717172F170C
:10362000171752002868FFF75BFF2B68C9689A6973
:1036300042F008029A619A6922F004029A619A693A
:103640000A439A610123002085F8353085F834005B
:1036500070BD2868FFF75AFF2B68C9689A6942F461
:1036600000629A619A6922F480629A619A6942EAD8
:103670000122E6E72B6826681A6A22F480721A6231
:103680001A6A5868D96922F4007221F07301314333
:10369000A6685860D961616842EA0622D9631A6255
:1036A000DA69E16842F00802DA61DA6922F00402BC
:1036B000DA61DA690A43DA61C4E72B6826681A6AB4
:1036C00022F480521A621A6A5868D96922F40052A8
:1036D00021F4E64141EA0621A6685860D961616893
:1036E00042EA063219641A62DA69E16842F4006259
:1036F000DA61DA6922F48062DA61DA6942EA012287
:10370000D9E790F8343070B5012B4FF002031CD08C
:10371000012280F83530036880F834209A6822F45A
:103720007F4222F077029A600A68402A79D019D83D
:10373000102A00F093800AD8002A00F08980012323
:1037400080F83530002380F83430184670BD202AC8
:1037500000F08A80302AF2D19A6822F0700242F09A
:10376000370236E0702A36D01BD8502A42D0602A61
:10377000E5D11C6A4D6824F01004CE681C6299697A
:103780001A6A21F4704122F0A00242EA051241EACD
:10379000063199611A629A6822F0700242F067025B
:1037A00017E0B2F5805F11D0B2F5005FC7D18A682B
:1037B0004D689C68C9682A4324F47F4442EA012288
:1037C00022439A609A6842F4804202E09A6822F0AA
:1037D00007029A60B3E78A684D689C68C9682A4303
:1037E00024F47F4442EA012222439A609A6842F01C
:1037F0007702EEE74C68CE68196A1D6A21F00A016B
:1038000025F001051D629A69214322F0F00242EA87
:1038100006129A6119629A6822F0700242F0570209
:10382000D7E74C68CE68196A1D6A21F00A0125F0B5
:1038300001051D629A69214322F0F00242EA061254
:103840009A6119629A6822F0700242F04702C0E75A
:103850009A6822F0700242F00702BAE79A6822F0F2
:10386000700242F01702B4E79A6822F0700242F048
:103870002702AEE77047704770477047036810B57E
:103880001A69044691070ED5DA6892070BD56FF0D6
:1038900002021A6101229B69027599075CD0FFF749
:1038A000EAFF0023237523681A69520710D5DA68E6
:1038B00050070DD56FF004021A6102229B69227530
:1038C00013F4407F20464DD0FFF7D5FF002323752A
:1038D00023681A6911070FD5DA6812070CD56FF043
:1038E00008021A610422DB6922759B0720463FD03B
:1038F000FFF7C1FF0023237523681A69D00610D58E
:10390000DA68D1060DD56FF010021A610822DB6962
:10391000227513F4407F204630D0FFF7ACFF002320
:10392000237523681A69D20708D5DA68D00705D548
:103930006FF0010220461A6102F06EFE23681A69D8
:10394000510608D5DA68520605D56FF040022046C8
:103950001A61FFF792FF10BDFFF78CFF2046FFF7BB
:103960008BFF9EE7FFF786FF2046FFF785FFADE759
:10397000FFF780FF2046FFF77FFFBBE7FFF77AFFE7
:103980002046FFF779FFCAE708B501F011FB0020D8
:1039900008BDEFF305830BB101F054BB01F04CBB44
:1039A00030B5B0F9084085B0842C08BF0024028AE5
:1039B00018BF03340B4690E8220003A8019000943E
:1039C000284601F0E1F9012814BF0020039805B052
:1039D00030BD012000F038BD13B500240A46019423
:1039E000E8B1EFF30583A3B101AA214601F0AAF8DB
:1039F000012802D0FF2002B010BD019B3BB14FF067
:103A00008052084B1A60BFF34F8FBFF36F8F0020B7
:103A1000F1E7194600F0A0FE0128EBD1F7E780207E
:103A2000E9E700BF04ED00E0012910B508460CD11C
:103A30000322002100F046FB044620B100231A4671
:103A4000194600F0B3FB204610BD0024FBE7000040
:103A500013B500240A460194E8B1EFF30583A3B13E
:103A600001AA214601F06EF8012802D0FF2002B021
:103A700010BD019B3BB14FF08052084B1A60BFF361
:103A80004F8FBFF36F8F0020F1E7194600F064FEFF
:103A90000128EBD1F7E78020E9E700BF04ED00E063
:103AA00013B500240194EFF3058393B101A900F04D
:103AB0004FFE012813D1019B13B9002002B010BDA5
:103AC0004FF08052074B1A60BFF34F8FBFF36F8FD9
:103AD000F3E71A46194600F069FB0128EDD0FF20F4
:103AE000ECE700BF04ED00E0FFF7DABF002203C8F7
:103AF00000F0E8BA1FB5002401910394A24208BF68
:103B00000122EFF30583ABB1234603AA01A900F01C
:103B1000ADFC012802D0FF2004B010BD039B3BB1D7
:103B20004FF08052064B1A60BFF34F8FBFF36F8F79
:103B30000020F1E701A900F039FB0128EBD1F7E7FC
:103B400004ED00E0F0B5002685B0044617460846AF
:103B50000391029601AD11B98023019317E00096FD
:103B6000EFF30583D3B16A4602A900F0EBFF012809
:103B700004BF10230193009B18BF01963BB14FF087
:103B800080520C4B1A60BFF34F8FBFF36F8F95E8D5
:103B9000070084E80700204605B0F0BD02A900F048
:103BA000DBFD012801D11023D7E7002F0CBF002334
:103BB0004023D2E704ED00E008B5002908BF012149
:103BC00001F080FB002008BD00F1080343604FF0C6
:103BD000FF32C360036100238260036070470023EB
:103BE0000361704743689A684B608A609A685160C5
:103BF0009960036808610133036070470A6830B553
:103C0000531C0AD103695A684A6091608B605960FD
:103C1000036808610133036030BD00F108035C688C
:103C20002568AA42EFD32346F9E741688268036911
:103C30008A60826851605968884208BF5A600022D1
:103C40000261186801381860704700000A4B1B6851
:103C5000013308D04FF0500383F31188BFF36F8F07
:103C6000BFF34F8FFEE74FF0500383F31188BFF38C
:103C70006F8FBFF34F8FFEE72400002006480068D7
:103C8000006880F3088862B661B6BFF34F8FBFF358
:103C90006F8F00DF00BF000008ED00E04FF0807381
:103CA00040F8043C054B21F0010140F8081C40F8A5
:103CB0000C3C40F8202C4038704700BF4D3C0008B9
:103CC000074B19680868B0E8F00F80F30988BFF364
:103CD0006F8F4FF0000080F311884EF00D0E70478B
:103CE0003C2100204FF0500383F31188BFF36F8F06
:103CF000BFF34F8F0A4A13680133012B13600DD1B4
:103D0000084B1B6813F0FF0F08D04FF0500383F3EC
:103D10001188BFF36F8FBFF34F8FFEE7704700BF6F
:103D20002400002004ED00E0084A136843B94FF076
:103D3000500383F31188BFF36F8FBFF34F8FFEE7FC
:103D4000013B13600BB983F31188704724000020F6
:103D5000EFF30980BFF36F8F0D4B1A6820E9F00F66
:103D600010602DE908404FF0500080F3118801F0F9
:103D700019FB4FF0000080F31188BDE80840196876
:103D80000868B0E8F00F80F30988BFF36F8F7047C1
:103D90003C21002008B54FF0500383F31188BFF396
:103DA0006F8FBFF34F8F01F055F918B14FF080526C
:103DB000024B1A60002383F3118808BD04ED00E074
:103DC0004FF47A72054B1B68B3FBF2F3044A013BD4
:103DD00013600722034B1A60704700BF38000020B1
:103DE00014E000E010E000E013B51F4B00211A784A
:103DF000D2B20192FF221A701B781C4ADBB28DF8F6
:103E000003309DF8033003F0500313700722184B62
:103E10001A609DF80300541E00061CD401B11A60FC
:103E20001A68120202F4E0621A60019B0E4ADBB2C9
:103E30001370104B1A6842F470021A601A6842F04C
:103E400070421A60FFF7BCFF00220B4B1A60FFF7AD
:103E500015FFFFF7FBFE9DF8032001215200D2B2AF
:103E60008DF803202246D4E700E400E02C01002076
:103E70003001002020ED00E024000020EFF3058356
:103E80000F2B0ED9104A9B5C104A12789A4208D91F
:103E90004FF0500383F31188BFF36F8FBFF34F8F41
:103EA000FEE70B4B0B4A1B68126803F4E063934276
:103EB00008D94FF0500383F31188BFF36F8FBFF31E
:103EC0004F8FFEE7704700BFF0E300E02C010020B9
:103ED0000CED00E03001002038B5044643071CBF5C
:103EE00020F00704083401F09FF80E4B1A681AB945
:103EF0000D4A22F007021A6041F6F7700B490A6872
:103F0000144484420BD8A24209D21D680C601544A7
:103F100001F052F90DB902F091FA284638BD00259A
:103F2000F6E700BF340100204001002038210020C6
:103F300040B14FF0500383F31188BFF36F8FBFF38D
:103F40004F8FFEE7704770B51546026C0446866BCE
:103F500042B905689DB9406801F0D8FB656001363B
:103F6000A66370BD6DB9806802F04AFDA368226C3B
:103F700013446268A360934201D32368A3600020C6
:103F8000EDE7C06802F03CFD236CE2685B4221680B
:103F90001A448A42E2603EBF62689B18E360022DC9
:103FA000EDD10EB1013EEAE73046D8E703461A6C80
:103FB00010B4084662B1D9685C681144A142D96066
:103FC00028BF196810BC28BFD960D96802F018BD95
:103FD00010BC704770B50446FFF784FE94F8455056
:103FE00004F124066DB2002D14DCFF2384F8453063
:103FF000FFF79AFEFFF776FE94F8445004F110069E
:104000006DB2002D12DCFF2384F84430BDE870400F
:10401000FFF78ABE636A002BE7D0304601F036FA1C
:1040200008B101F0CDFA013D6DB2DCE72369002B48
:10403000E9D0304601F02AFA08B101F0C1FA013D99
:104040006DB2DEE738B50D46044640B94FF0500377
:1040500083F31188BFF36F8FBFF34F8FFEE7FFF736
:1040600041FE206CE36B22684343D1181B1A1344B2
:104070006160E3600021FF23A163A26084F8443003
:1040800084F8453095B9236963B104F1100001F05B
:10409000FDF938B14FF08052094B1A60BFF34F8FD2
:1040A000BFF36F8FFFF740FE012038BD04F1100011
:1040B000FFF78AFD04F12400FFF786FDF2E700BF59
:1040C00004ED00E0F8B50D461746064640B94FF03E
:1040D000500383F31188BFF36F8FBFF34F8FFEE759
:1040E00048435030FFF7F8FE0446002851D0002D19
:1040F00051D120600121E66325642046FFF7A2FF2D
:1041000084F84C70204601F093FB254D285C01F0AB
:104110003DFD81B2204601F0BCFB224B20461988B0
:1041200001F0C5FB204601F083FB2E5C204601F028
:10413000A6FBC1B2304601F08BFC01F0C5FB01F0DB
:104140007EFB194E3388184217D0204601F09CFBA5
:104150003388184211D0204601F06AFB2E5C2046BD
:1041600001F066FB2F5C204601F089FB1836F6B2A1
:10417000C2B23946304601F073FE204601F058FBCA
:104180002D5C204601F07BFB0022C1B2284601F0E5
:10419000BBFC2046F8BD00F150030360AAE700BF56
:1041A000280000202E000020300000202DE9F04FD4
:1041B00085B0894601921D46044640B94FF0500330
:1041C00083F31188BFF36F8FBFF34F8FFEE7002992
:1041D00040F01981036C002B00F015814FF0500363
:1041E00083F31188BFF36F8FBFF34F8FFEE7019EFC
:1041F000002E00F013814FF0500383F31188BFF3BA
:104200006F8FBFF34F8FFEE72526AEE0019B3BBBD0
:10421000FFF78AFD01F058FB01F011FB874E338850
:1042200018421BD0204601F02FFB3388184215D0CE
:10423000834E002D40F0E580204601F0F9FA355C10
:104240004835EDB2204601F0F3FA365C204601F025
:1042500016FB3146C2B2284601F002FE0020BFE044
:1042600016B902A801F062F9FFF75EFD00F0DCFE6E
:10427000FFF738FD94F84430FF2B04BF002384F887
:10428000443094F84530FF2B04BF002384F84530B8
:10429000FFF74AFD01A902A801F058F9002840F0F3
:1042A000AA80FFF71FFDD4F838B0E66BFFF73CFD9E
:1042B000B34540F09A8001F007FB01F0C0FAB8F86E
:1042C000003018421CD0204601F0DEFAB8F8003069
:1042D000184215D0002D40F08680204601F0A8FA43
:1042E0003E5C7036F6B2204601F0A2FA17F800B034
:1042F000204601F0C4FA5946C2B2304601F0B0FD82
:10430000019904F1100001F0A7F82046FFF762FEC2
:1043100000F052FF38B94FF08053CAF80030BFF3B5
:104320004F8FBFF36F8F0126FFF7DCFCA26BE36BAF
:104330009A4202D3022D7FF469AF01F0C5FA01F071
:104340007EFA3E4E3E4F338818421BD0204601F085
:104350009BFA3388184215D0002D7FF455AF2046C4
:1043600001F066FA3E5C2036F6B2204601F060FAB3
:1043700017F80080204601F082FA4146C2B230466A
:1043800001F06EFD204601F053FA3E5C204601F03C
:1043900076FA5FFA80F8204601F04AFA3B5C414623
:1043A000022B17BFA26B00220132D2B2304601F0BD
:1043B000ABFB2A4649462046FFF7C5FD636A1BB1A1
:1043C00004F1240001F062F838B14FF080521D4B27
:1043D0001A60BFF34F8FBFF36F8FFFF7A5FC01206B
:1043E00005B0BDE8F08F75267DE72046FFF7F2FDAA
:1043F00000F0E2FE97E72046FFF7ECFD00F0DCFE60
:1044000008E74D251EE7022D02D1E36B012B0BD1EE
:1044100001F0E8F800283FF4EAAE0026DFF81C803F
:10442000DFF820A0064F7FE74FF0500383F3118899
:10443000BFF36F8FBFF34F8FFEE700BF3000002048
:104440002800002004ED00E010B502460021012004
:10445000FFF738FE044638B1002343600360C360B1
:104460001A461946FFF7A2FE204610BD2DE9F74F68
:104470008B4692469846044640B94FF0500383F36A
:104480001188BFF36F8FBFF34F8FFEE7002945D12F
:10449000036C002B42D04FF0500383F31188BFF31D
:1044A0006F8FBFF34F8FFEE7352766E004F12400DE
:1044B00000F0ECFF002800F08880BAF1000F00F057
:1044C00084800120CAF8000086F3118803B0BDE89B
:1044D000F08F01356DB284F8455076E0204601F04A
:1044E000D3F93B881840EFD03D4FB8F1000F13D1FE
:1044F000204601F09DF93D5C5835EDB2204601F0B3
:1045000097F93F5C204601F0BAF93946C2B2284615
:1045100001F0A6FC0020D7E75D25EFE7B8F1020F18
:1045200002D1E36B012B52D1FFF7A8FCEFF3118608
:104530004FF0500383F31188BFF36F8FBFF34F8F9A
:10454000A26BE36B274F9A4202D3B8F1020FC5D199
:10455000204694F8455001F097F93B886DB2184217
:10456000DFF87C9017D0B8F1000F9DD1204601F004
:104570005FF919F800703037FFB2204601F058F9A2
:1045800019F800102046019101F079F90199C2B2A1
:10459000384601F065FC204601F04AF919F8007030
:1045A000204601F06CF9A26BC1B20132D2B238469A
:1045B00001F0AAFA424659462046FFF7C4FC6B1C9C
:1045C00087D1636A002B7FF471AF01207CE74FF045
:1045D000500383F31188BFF36F8FBFF34F8FFEE754
:1045E00028000020300000202DE9F84F89461746AA
:1045F000044640B94FF0500383F31188BFF36F8F27
:10460000BFF34F8FFEE7036C43B14FF0500383F3CA
:104610001188BFF36F8FBFF34F8FFEE703681BB99D
:104620004368002B40F08680FFF728FCEFF31186EB
:104630004FF0500383F31188BFF36F8FBFF34F8F99
:10464000D4F83880E36BDFF800A1984520D32046EA
:1046500001F01AF9BAF80030184060D0DFF8EC80A9
:10466000002F65D1204601F0E3F818F800505835C6
:10467000EDB2204601F0DCF818F80070204601F099
:10468000FEF83946C2B2284601F0EAFB002046E0B7
:10469000204694F8455001F0F7F8BAF800306DB2B2
:1046A0001842DFF8A8A014D05FBB204601F0C0F884
:1046B0001AF800703037FFB2204601F0B9F81AF846
:1046C00000B0204601F0DBF85946C2B2384601F08E
:1046D000C7FB204601F0ACF81AF80070204601F044
:1046E000CEF8A26BC1B20132D2B2384601F00CFA58
:1046F00008F10103A3636B1C15D1636A1BB9012088
:104700000DE03527D8E704F1240000F0BFFE0028B3
:10471000F5D0B9F1000FF2D00120C9F8000086F3FE
:104720001188BDE8F88F01356DB284F84550E6E791
:104730005D259EE74FF0500383F31188BFF36F8F21
:10474000BFF34F8FFEE700BF30000020280000209D
:104750000022FFF749BF00002DE9F04F85B08A46DF
:1047600001921D46044640B94FF0500383F311886F
:10477000BFF36F8FBFF34F8FFEE7002940F0D0816A
:10478000036C002B00F0CC814FF0500383F31188B1
:10479000BFF36F8FBFF34F8FFEE7019E002E00F037
:1047A000C5814FF0500383F31188BFF36F8FBFF3C0
:1047B0004F8FFEE7A26B013AD2B21AE101F084F802
:1047C00001F03DF83B88184218D0204601F05CF813
:1047D0003B88184212D0204601F02AF8BD4F3D5CBC
:1047E000204601F025F83F5C204601F048F8783576
:1047F000EDB2C2B23946284601F032FB636AE66088
:10480000002B00F0118104F1240002E1DDF80480A6
:10481000B8F1000F28D1FFF787FAAF4E002D00F056
:104820005F8101F051F801F00AF83388184201D194
:104830000020FCE0204601F027F833881842F7D02A
:10484000204600F0F5FFA34E355C204600F0F0FF57
:10485000365C204601F013F8213DEDB2C2B231467C
:10486000284601F0FDFAE3E716B902A800F05EFE63
:10487000FFF75AFA00F0D8FBFFF734FA94F8443007
:10488000FF2B04BF002384F8443094F84530FF2BFD
:1048900004BF002384F84530FFF746FA01A902A8B7
:1048A00000F054FE002840F0E280FFF71BFAA66BF0
:1048B000FFF73AFA002E40F0D480002D00F0BA80C5
:1048C00001F002F800F0BBFFB9F80030184219D02F
:1048D000204600F0D9FFB9F80030184212D0204627
:1048E00000F0A6FF3E5C243E204600F0A1FF17F832
:1048F0000080204600F0C3FFF6B2C2B24146304607
:1049000001F0AEFA204600F093FF3B5C022B0ED084
:1049100000F0DAFF00F093FFB9F80030184206D03B
:1049200000F0D2FF00F086FFC0B201F013F9236857
:1049300033B9FFF7D7F9606800F064FEFFF7F4F9C8
:10494000019904F1240000F087FD2046FFF742FBA7
:1049500000F032FC38B94FF08053CBF80030BFF391
:104960004F8FBFF36F8F0126FFF7BCF9D4F8388063
:10497000B8F1000F3FF44AAF51462046E668564F63
:10498000FFF714FB002D7FF419AF00F09DFF00F03E
:1049900056FF3B884F4E184217D0204600F074FF58
:1049A0003B88184211D0204600F042FF355C20467B
:1049B00000F03EFF375C204600F061FF2835EDB285
:1049C000C2B23946284601F04BFA204600F030FFCB
:1049D000355C204600F053FFC7B2204600F028FFA8
:1049E000335C022B7FF4E6AE00F06EFF00F022FF96
:1049F000C2B23946284601F087F808F1FF33A363B5
:104A0000236813B900F008FF6060236963B104F103
:104A1000100000F03BFD38B14FF080522F4B1A6070
:104A2000BFF34F8FBFF36F8FFFF77EF9012005B003
:104A3000BDE8F08F00F048FF00F001FFB9F800304A
:104A400018423FF45FAF204600F01EFFB9F8003077
:104A500018423FF457AF204600F0EAFE3E5C68364D
:104A600042E72046FFF7B6FA00F0A6FB7BE72046B8
:104A7000FFF7B0FA00F0A0FBFFF734F9D4F8388064
:104A8000FFF752F9B8F1000F7FF46DAF124E3DB34E
:104A900000F01AFF00F0D3FE338818423FF4C8AE8E
:104AA000204600F0F1FE338818423FF4C1AE2046A4
:104AB00000F0BEFE074D2E5C204600F0B9FE2D5CD6
:104AC000204600F0DCFE2946213EF6B2C2B2304656
:104AD000C7E600BF280000203000002004ED00E001
:104AE00000F0F2FE00F0ABFE338818423FF4A0AEB7
:104AF000204600F0C9FE338818423FF499AE2046A4
:104B000000F096FE0C4F3E5C204600F091FE3F5CAC
:104B1000204600F0B4FE5036F6B2C2B23946D6E7AF
:104B200000F060FD00283FF438AE0026DFF80C905E
:104B3000014FDFF80CB017E72800002030000020FC
:104B400004ED00E02DE9F74F8B469246044640B94C
:104B50004FF0500383F31188BFF36F8FBFF34F8F74
:104B6000FEE700295FD1036C002B5CD04FF05003AF
:104B700083F31188BFF36F8FBFF34F8FFEE720469B
:104B800094F8445000F080FEB8F800306DB218423E
:104B9000DFF8F49016D0204600F04AFE19F80080A5
:104BA000204600F045FE19F800102046019100F063
:104BB00066FE08F138085FFA88F8C2B201994046EB
:104BC00001F04EF9204600F033FE19F8008020462F
:104BD00000F055FEA26BC1B2013AD2B2404600F0DD
:104BE00093FF59462046FFF7E1F9013F6B1CA7638D
:104BF00014D123690BB901200BE004F1100000F07F
:104C000045FC0028F7D0BAF1000FF4D00120CAF813
:104C1000000086F3118803B0BDE8F08F01356DB256
:104C200084F84450E7E7FFF729F9EFF311864FF0D6
:104C3000500383F31188BFF36F8FBFF34F8FA76BC0
:104C4000DFF84880002F9AD1204600F01DFEB8F80A
:104C500000301840DDD0204600F0EAFDDFF8288063
:104C600018F80050204600F0E3FD18F800802046B8
:104C700000F005FE6035EDB2C2B24146284601F0B3
:104C8000EFF83846C5E700BF2800002030000020BC
:104C9000806C70478164704790F84C00704700004A
:104CA0004FF080520549064B08680128FDD91A606B
:104CB000BFF34F8FBFF36F8FF6E700BF482100208F
:104CC00004ED00E0064A13681968064B19B94FF065
:104CD000FF321A6070471268D268D2685268F8E7EB
:104CE0004021002014220020F8B51B4B1B4E1D68EC
:104CF000044630680F460430FEF797FF334640B94C
:104D000001203168164EC96A3268884022EA0002E2
:104D10003260621C07D137B1196812480431BDE80E
:104D2000F840FEF75FBF2C441A68A542546007D9CB
:104D30000D4A10681968BDE8F8400431FEF75EBFFF
:104D40000A4A106819680431FEF758FF084B1A68C0
:104D5000944238BF1C60F8BD482200203C2100204E
:104D6000E4210020342200204421002040210020A2
:104D7000142200204FF0500383F31188BFF36F8F8C
:104D8000BFF34F8FFEE700002DE9F84F4FEA820B8B
:104D9000814658460D469A46FFF79EF8074600287A
:104DA00000F0D9805C20FFF797F80446002800F057
:104DB000CF805A460763A521384601F02CFE04F146
:104DC00034029046236BABF1040B9B442BF0070B92
:104DD0006B1E0F35597802F8011B13F8011F09B13A
:104DE000AB42F7D10A9D0026062D28BF0625271DB8
:104DF000E562E564384684F843602665FEF7EFFE19
:104E0000C5F1070504F11800FEF7E9FE66652461A7
:104E1000A561646284F85860524649465846FEF7D8
:104E20003DFF0B9B206003B11C60FEF75BFF514B05
:104E3000514E1A68DFF8709101321A603568002D02
:104E400040F08C8034601B68012B1AD109EB0500FF
:104E50001435FEF7B9FE8C2DF8D1DFF850A1474D7F
:104E60005046FEF7B1FE2846FEF7AEFE4448FEF778
:104E7000ABFE4448FEF7A8FE434BC3F800A0434BEB
:104E80001D60434A03201368424D0133636413607D
:104E900000F07CFE81B2204600F0D6FC3E4B20465E
:104EA000198800F0DFFC204600F0C4FC4246C1B285
:104EB000032000F0C1FE204600F0BCFC94F82C203A
:104EC000C1B2032000F0D4FD00F0FEFC00F0B7FCFE
:104ED0002B8818420DD0204600F0B1FC2B881842D8
:104EE00007D0204600F0A6FC0321C2B21B2000F030
:104EF000B7FF204600F0A3FC2B88184205D02046BF
:104F000000F098FCC0B200F06FFF01252349E26A6F
:104F1000086805FA02F3034314200B6000FB0290BB
:104F20003946FEF75FFEFEF7FFFE1D4B1B6863B1BF
:104F30003368DA6AE36A9A4207D24FF08052194B1B
:104F40001A60BFF34F8FBFF36F8F2846BDE8F88F0D
:104F50003846FEF7EDFF4FF0FF35F6E7104B1B68C4
:104F6000002B8ED13368DA6AE36A9A4298BF3460C4
:104F700087E700BFD42100203C210020FC21002035
:104F80001C22002034220020402100204421002047
:104F9000E0210020300000202E000020E42100202D
:104FA0003022002004ED00E048210020E82100200C
:104FB00013B50024164B009401934FF4007223465E
:104FC00014491548FFF7E0FE012814D14FF05003B3
:104FD00083F31188BFF36F8FBFF34F8F4FF0FF3212
:104FE0000E4B1A600E4B18600E4B1C6002B0BDE8F1
:104FF0001040FEF7F9BE013008D14FF0500383F3A3
:105000001188BFF36F8FBFF34F8FFEE702B010BD63
:105010001022002008790008A14C0008142200206A
:105020003022002048220020024A13680133136016
:10503000704700BFDC210020014B1868704700BF9B
:105040004822002008B5FEF719FF014B186808BD7B
:10505000482200202DE9F84F4A4C2368012B02D04A
:10506000494B1B6833B9494A002013680133136068
:1050700000F01AFE23682368002B60D1444B1C68A3
:1050800001341C60BCB9434B1A68126842B14FF03E
:10509000500383F31188BFF36F8FBFF34F8FFEE789
:1050A0003D4A19681068186011603C4A1368013362
:1050B0001360FFF707FE3A4D4FF0000B2B68394F96
:1050C0009C424BD3DFF8CC80DFF8E890D8F8002082
:1050D0001268002A3AD14FF0FF322A603EE006F112
:1050E000040A5046FEF7A1FDB16A19B106F1180095
:1050F000FEF79BFD304600F0A2FB2B4B19880842BF
:1051000005D0304600F096FBC0B200F06DFE0121E4
:105110004FF0140EF06AD9F8003081401943234B48
:10512000C9F800100EFB00305146FEF75BFD3868F1
:10513000F16AC26A914228BF4FF0010BC6E7124ADA
:105140004FF0000B13680133136011E0D8F8002012
:10515000D268D66871688C42C1D229603A68134B14
:10516000D16A14224A439A58022A28BF4FF0010BF1
:105170000F4A1268002A18BF4FF0010B5846BDE8CD
:10518000F88F00BFDC210020D82100200C23002054
:105190004822002040210020442100201822002025
:1051A000142200203C210020300000204821002053
:1051B0004C220020E42100202DE9F843374C2368DD
:1051C00043B94FF0500383F31188BFF36F8FBFF3E0
:1051D0004F8FFEE7FEF786FD2368013B23602468BE
:1051E0002CB10024FEF7A0FD2046BDE8F8832C4B2F
:1051F0001B68002BF5D02B4DDFF8C4902A4E2B688E
:10520000E3B90CB1FFF75EFD284D2C6844B10127CE
:10521000274EFFF71FFF00B13760013CF9D12C602A
:10522000234B1B68002BDCD04FF08052214B1A60BF
:10523000BFF34F8FBFF36F8F0124D3E7EB68DC68B8
:1052400004F1180004F10408FEF7EFFC4046FEF7F5
:10525000ECFC204600F0F3FAB9F80030184205D013
:10526000204600F0E7FAC0B200F0BEFD012714208E
:10527000E26A316807FA02F30B4333600E4B414692
:1052800000FB0230FEF7AEFC0C4BE26A1B68DB6AE7
:105290009A4224BF064B1F60B1E700BFDC2100200B
:1052A000D42100201C220020E4210020D82100204D
:1052B0004C22002004ED00E0482100203C21002089
:1052C00030000020F8B540B94FF0500383F3118847
:1052D000BFF36F8FBFF34F8FFEE741B94FF050031D
:1052E00083F31188BFF36F8FBFF34F8FFEE7284B17
:1052F0001D6845B14FF0500383F31188BFF36F8FE2
:10530000BFF34F8FFEE7FFF78FFE224B1E68036847
:105310009E4201EB030437D2A34203D9A6422CBF1D
:105320000025012504601DB31B4F1C4D386800F09B
:1053300086FA2A88104209D02146882000F03EFED5
:10534000386800F077FAC0B200F004FC00F0BCFA54
:1053500000F075FA2B88184206D000F0B5FA00F07C
:1053600069FAC0B200F0F6FB0021A01BFFF7BCFCFD
:10537000FFF722FF38B94FF08052094B1A60BFF394
:105380004F8FBFF36F8FF8BDA342C7D90125C9E77F
:10539000DC210020482200203C2100203000002099
:1053A00004ED00E038B5264B1A68264B12B10122F5
:1053B0001A6038BD244C1A602268236812681B6B7F
:1053C0009A4204D820682168343101F02BF81F4B31
:1053D0001B68B3FA83F31422DBB2C3F11F035A43F1
:1053E0001B498D58881845B94FF0500383F3118835
:1053F000BFF36F8FBFF34F8FFEE7456808326D68CC
:105400000A44954208BF6A68456008BF426014229A
:1054100002FB03135B68DB68236000F055FA00F0C1
:105420000EFA0C4B1B88184208D000F04DFA00F021
:1054300001FABDE83840C0B200F010BE38BD00BF70
:10544000DC2100204C2200203C210020E42100200F
:10545000482100203000002010B50C4640B94FF024
:10546000500383F31188BFF36F8FBFF34F8FFEE7B5
:10547000054B19681831FEF7C1FB2046BDE8104006
:105480000121FFF731BC00BF3C21002038B5C368C3
:10549000DC6844B94FF0500383F31188BFF36F8F7A
:1054A000BFF34F8FFEE704F118052846FEF7BDFB5A
:1054B000174B1B684BBB251D2846FEF7B6FB204645
:1054C00000F0BDF9134B1B88184205D0204600F0B0
:1054D000B1F9C0B200F088FC01230F49E26A086804
:1054E0009340034314200B6029460C4B00FB023011
:1054F000FEF778FB0A4BE26A1B68DB6A9A4285BFBB
:105500000120084B0020186038BD29460648EFE707
:10551000DC21002030000020E42100204821002070
:105520003C2100204C2200201C22002008B508B994
:10553000FFF720FC034B1B680360034B1B684360B1
:1055400008BD00BF182200204822002038B50D46B3
:10555000044640B94FF0500383F31188BFF36F8FB7
:10556000BFF34F8FFEE741B94FF0500383F311882B
:10557000BFF36F8FBFF34F8FFEE7FEF7B3FB0E4B0A
:1055800019682B685A1C10D00C4A20681268904287
:10559000626801D091420DD2881A83420AD95B1AFF
:1055A00013442B602046FFF7C1FF0024FEF7BCFB2D
:1055B000204638BD0124F9E74822002018220020A7
:1055C0000122014B1A6070474C22002000B1806C10
:1055D000704700B181647047014B1868704700BF85
:1055E0003C210020054B1B6833B1054B1B68002B89
:1055F0000CBF02200020704701207047302200209D
:10560000DC2100202DE9F0470446002874D03B4DF2
:10561000C36A2A68D26A93426ED24FF0140A826932
:10562000374E002AA8BF2A680AFB0363A8BFD26AC4
:10563000DFF8D080A4BFC2F10702826142699A42BA
:1056400056D1071D3846FEF7F0FADFF8BC9068B96E
:10565000E16A0AFB01FA56F80A303BB90122D9F88F
:1056600000308A4023EA0203C9F800302B68204644
:10567000DB6AE36200F0E3F8B8F80030184205D0C6
:10568000204600F0D7F8C0B200F0AEFB0123142092
:10569000E26AD9F8001093400B4300FB02603946E0
:1056A000C9F80030FEF79EFA204600F0C8F8B8F8B6
:1056B0000030184220D0204600F0BCF806462046B4
:1056C00000F0B8F8C1B2032000F0F8F9F2B20346D6
:1056D00003218E2000F012FC204600F0ABF82B686E
:1056E000C1B293F82C200320BDE8F04700F0C0B908
:1056F0002B68DB6AC362D7E7BDE8F0873C21002056
:105700004821002030000020E42100202DE9F8434A
:10571000044610B90020BDE8F8833B4B1B68984253
:1057200008D04FF0500383F31188BFF36F8FBFF39E
:105730004F8FFEE7036D43B94FF0500383F3118899
:10574000BFF36F8FBFF34F8FFEE7C16AC26C013B9F
:1057500091420365DED0002BDCD100F10408404605
:10576000FEF763FA294F2A4D50B91421E06A4143EC
:105770007B582BB901222B68824023EA02032B605D
:10578000204600F05CF8234E328810421AD02046A2
:1057900000F050F88146204600F04CF8C1B20320DA
:1057A00000F08CF95FFA89F2034603218F2000F0A4
:1057B000A5FB204600F03EF894F84C20C1B203202F
:1057C00000F056F9E36C2046E362C3F10703A361DE
:1057D00000F035F83388184205D0204600F02AF84A
:1057E000C0B200F001FBE26A01241420296804FA27
:1057F00002F30B4300FB027041462B60FEF7F2F907
:105800002046BDE8F88300BF3C210020482100204D
:10581000E421002030000020044B1A681AB11968F6
:105820000A6D01320A651868704700BF3C210020EC
:10583000FFF732BA08B5FFF7C9FE80B208BD08B558
:10584000FFF7C4FE000C08BD38B504460D46FFF74F
:10585000BDFE000C000440EA05012046BDE83840CA
:10586000FFF7B7BE38B504460D46FFF7AFFE80B26E
:1058700040EA05412046BDE83840FFF7AABE08B51A
:10588000FFF706FA80B208BD08B5FFF701FA000C71
:1058900008BD38B504460D46FFF7FAF9000C0004C0
:1058A00040EA05012046BDE83840FFF7F3B938B5B6
:1058B00004460D46FFF7ECF980B240EA0541204668
:1058C000BDE83840FFF7E6B9FFF786BE08289ABF63
:1058D000024B53F820000248704700BF10790008BF
:1058E0003479000810B501380A44914207D00B46BC
:1058F00011F8014B00F8014F1B78002BF5D110BDBA
:105900001F4B10B41B681A6B002A36D05A6901323B
:105910005A61DA690132B2F57A7FDA6121BF012278
:105920001A620022DA61D96988001A1892F8682987
:1059300002F16704E4B20E2C0ED86832D2B29C6930
:105940001144A14219D2013200F6681092000021E0
:10595000184410BC01F05FB8012A0ED19A690131D8
:1059600091424FF0000200F668103BBF19181A5020
:10597000C3F868294A6028BF1A5010BC704700BF9E
:1059800050220020044B1B680BB100221A63034B0A
:105990001B6803B1184770475022002010230020D5
:1059A00038B50B4C054623680BB1FFF7EBFF094BED
:1059B0001A6862B920681D6048B15022294600F675
:1059C0001410FFF78FFF01222368C3F80C2938BD9C
:1059D000502200200423002008B5094B1B68186BD7
:1059E00060B1D869B0F57A7F04D30648FFF7D8FFD5
:1059F000002008BD03EB800000F6681008BD00BF62
:105A000050220020977D0008082910B504D90D48C0
:105A1000FFF7C6FF002010BD30B10B4B1B685A18B2
:105A200092F86440844201D20848F1E703EB410355
:105A300092F87C20B3F88830013802FB003080B245
:105A400010BD00BF20830008502200205D830008A5
:105A500008B50B4601461846FFF7D6FF034B1B68F7
:105A60001844012380F89C3008BD00BF502200205C
:105A700070B50446082C0846164604D90C48BDE803
:105A80007040FFF78DBF0B4D2B68234493F86430B3
:105A90008B4201D20848F2E72146FFF7B5FF2B6899
:105AA0001C4494F870201844104480F89D6070BD28
:105AB000CA7E000850220020137F000838B5044633
:105AC000082C084604D90D48FFF76AFF002038BDAE
:105AD0000B4D2B68234493F864308B4201D2094864
